:020000040800F2
:1000000000200020DD7000082D7100082D7100080F
:1000100000000000000000000000000000000000E0
:100020000000000000000000000000002D7100082A
:1000300000000000000000002D7100085D34000881
:100040002D7100082D7100082D7100082D71000818
:100050002D7100082D7100082D71000899340008D9
:100060002D7100082D7100082D7100082D710008F8
:10007000893400082D710008000000002D7100086F
:10008000000000002D7100080000000000000000CA
:1000900079340008000000002D7100082D7100085F
:1000A0002D7100082D7100082D71000869340008B9
:1000B0002D7100082D710008000000002D7100084E
:1000C00010B5064C2378002B07D1054B002B02D02E
:1000D000044800E000BF0123237010BD4805002044
:1000E0000000000094BC000808B5044B002B03D0AE
:1000F0000348044900E000BF08BDC04600000000FE
:1001000094BC00084C05002002780B7801300131C6
:10011000002A01D09A42F7D0D01A704702B4714633
:1001200049084900095C49008E4402BC7047C0463A
:1001300003B47146490840004900095A49008E44F9
:1001400003BC7047002934D00123002210B4884238
:100150002CD301242407A14204D2814202D20901F6
:100160001B01F8E7E400A14204D2814202D2490017
:100170005B00F8E7884201D3401A1A434C08A042BA
:1001800002D3001B5C0822438C08A04202D3001B50
:100190009C082243CC08A04202D3001BDC08224367
:1001A000002803D01B0901D00909E3E7101C10BC8B
:1001B0007047002801D00020C04307B4024802A1C4
:1001C0004018029003BDC046D90000000029F0D0BD
:1001D00003B5FFF7B9FF0EBC4243891A1847C04662
:1001E000002941D010B4041C4C40A4460123002235
:1001F000002900D54942002800D5404288422CD32E
:1002000001242407A14204D2814202D209011B0128
:10021000F8E7E400A14204D2814202D249005B0027
:10022000F8E7884201D3401A1A434C08A04202D38F
:10023000001B5C0822438C08A04202D3001B9C08D0
:100240002243CC08A04202D3001BDC082243002832
:1002500003D01B0901D00909E3E7101C6446002CF8
:1002600000D5404210BC7047002806D003DB0020B8
:10027000C043400801E08020000607B4024802A104
:100280004018029003BDC046190000000029EBD0C1
:1002900003B5FFF7A7FF0EBC4243891A1847C046B3
:1002A0007047C0468446101C62468C46191C634643
:1002B00000E0C0461FB501F037FD002801D4002141
:1002C000C8421FBD10B501F067FC4042013010BDAF
:1002D00010B501F029FD002801DB002010BD012030
:1002E00010BDC04610B501F01FFD002801DD002043
:1002F00010BD012010BDC04610B501F097FC0028CC
:1003000001DC002010BD012010BDC04610B501F079
:100310008DFC002801DA002010BD012010BDC04670
:100320008446081C6146FFE71FB500F043FA002829
:1003300001D40021C8421FBD10B500F0C9F94042E8
:10034000013010BD10B500F035FA002801DB0020A7
:1003500010BD012010BDC04610B500F02BFA0028DA
:1003600001DD002010BD012010BDC04610B500F019
:10037000D9F9002801DC002010BD012010BDC046C5
:1003800010B500F0CFF9002801DA002010BD0120DF
:1003900010BDC046002B11D1002A0FD1002900D179
:1003A000002802D00021C943081C07B4024802A15A
:1003B0004018029003BDC046E9FEFFFF03B4684643
:1003C00001B5029800F044F8019B9E4602B00CBCB7
:1003D0007047C0460000000038B50E4B0C4A041CA4
:1003E0000D1CFFF793FF002804D1201C291C02F0EC
:1003F000D3FA38BD074B064A201C291C01F0A2FF86
:1004000002F0CAFA80231B06C018F2E7C046C046B5
:10041000000000000000E041F0B583B0161C1F1C76
:100420000090019102F07CFC041C0D1C221C2B1C72
:10043000301C391C02F052FC009A019B121A8B41AD
:100440000899201C0A604B60291C03B0F0BDC0460F
:10045000F0B583B0141C1D1C0090019102F03CFE0D
:10046000221C2B1C061C0F1C02F038FC009A019B5E
:10047000121A8B410899301C0A604B60391C03B07A
:10048000F0BDC046F0B55F4656464D464446F0B412
:1004900046024500C00F85B00F1C760A2D0E80461F
:1004A00041D0FF2D26D08024240400212643F600CD
:1004B0007F3D89468B46F90F7C027800640A000E66
:1004C00000918A463CD0FF2834D080231B041C4373
:1004D0000023E4007F380193009F4346019A7B404C
:1004E00049469C4611430F2900D971E0764F890097
:1004F0007F58BF46002E3ED10822022391469B46DC
:10050000D9E75A46341CC24601920199022937D0D4
:10051000032900D1CFE0012900D0ABE053460B40C6
:100520000022002632E0002E19D104210122894642
:100530009346C0E7221C531E9A4102320192CBE738
:1005400001270197002CC7D0201C02F0A9FB431FF4
:100550009C4076235B420021181A0191BCE7301CB5
:1005600002F09EFB7625431F9E406D4200232D1A0C
:1005700099469B469FE70C23032199468B469AE7B1
:10058000D446012367463B40FF2200267602D2056F
:10059000700ADB071043184305B03CBC90469946EF
:1005A000A246AB46F0BD80260023F603FF22EDE70E
:1005B00000220026EAE78020C00306423BD0044226
:1005C00039D1061C26437602760A009BFF22DDE71E
:1005D000281A039076016401A64239D3361B1A22E9
:1005E00001230120311C5B007600002901DBB442AD
:1005F00001D8361B0343013A002AF3DC741EA641DE
:10060000341C1C43039A7F32002A27DD630704D081
:100610000F232340042B00D00434270103D52B4B98
:10062000039A1C408032FE2A0BDD012361460B40F9
:10063000FF220026AAE706437602760A4346FF22F7
:10064000A4E7A40101236746660AD2B23B409DE7B6
:10065000039F1B22013F03970023C2E77E23039FD2
:100660005B42DB1B1B2B07DD012361460B40002295
:1006700000268BE7D446C5E7221CDA40039B9E3355
:100680009C40231C5C1EA34113435A0704D00F2235
:100690001A40042A00D004335F0105D501236146C6
:1006A0000B400122002671E79E01624601231340A0
:1006B000760A00226AE78026F60326437602760A47
:1006C0005346FF2262E7C046B0BC0008FFFFFFF7B9
:1006D0004A02430270B55C0A550A43004A001B0EE9
:1006E000C60F120EC90FFF2B05D0FF2A08D001201C
:1006F00093420BD070BD0120002CFBD1FF2AF6D114
:100700000120002DF6D101209342F3D1AC42F1D16A
:100710008E4205D0002BEDD1201C441EA041E9E7FC
:100720000020E7E74A024302F0B55C0A550A43009D
:100730004A001B0EC60F120EC90FFF2B31D0FF2A25
:1007400034D0002B16D1604260418446002A14D078
:10075000002820D18E4217D1934215DC04DBAC4235
:1007600012D80020AC4212D27042704140420123A4
:1007700018430CE0002AEDD194466F426F41604669
:10078000002805D1002FE5D0704201231843F0BDA9
:100790000020002FFBD1484248414042012318432A
:1007A000F5E7002CCBD002204042F0E7002DC8D066
:1007B000F9E7C0464A024302F0B55C0A550A430015
:1007C0004A001B0EC60F120EC90FFF2B27D0FF2A9F
:1007D00029D0002B10D0002A15D194466F426F41CA
:1007E0006046002815D00020002F04D1484248411F
:1007F000404201231843F0BD604260418446002A14
:10080000ECD00028F2D18E4211D07042012318435F
:10081000F1E7002FF7D0704201231843EBE70220E5
:10082000002CE8D1D3E70220002DE4D1D1E7934298
:10083000EBDC04DBAC42E8D80020AC42DBD27042F7
:100840007041404201231843D5E7C046F0B55F46EA
:1008500056464D464446F0B44402460083B00F1C51
:10086000640A360EC50F002E41D0FF2E22D0802301
:100870001B0400201C43E4007F3E82468046391C56
:100880004B007F02C90F7F0A1B0E8B463BD0FF2B0C
:1008900034D0802212041743FF007F3B00215A46C8
:1008A0006A40019252460A430F2A63D87A4892005E
:1008B00082589746002C3FD1082202239246984640
:1008C000DDE70195404602282AD1019A012515400D
:1008D000FF2300246402DB05600AED071843284368
:1008E00003B03CBC90469946A246AB46F0BD002CF6
:1008F00027D10420012282469046C0E7391C4A1EB7
:1009000091410231CBE70121002FC8D0381C02F001
:10091000C7F9431F9F4076235B421B1A0021BEE7A5
:10092000032800D1AEE001284FD101984246104083
:10093000C5B200230024CDE70C2303209A4680464D
:100940009DE7201C02F0ACF97626431F9C407642BE
:100950000023361A9A46984691E780240025E4033E
:10096000FF23B7E75B463C1C01938846AAE73C1C83
:100970008846A7E7250C24043A0C240C3F04F618FB
:100980003F0C211C231C794353436F435543FB18F1
:100990000A0C9B18B1469F4202D980225202AD1820
:1009A00009041A04090C521894011B0C611E8C4195
:1009B000920EED181443AD012C43230105D50122FD
:1009C00063080120144081441C434B467F33002BB5
:1009D0002DDD600704D00F222240042A00D0043409
:1009E000220103D52D4B1C404B468033FE2B17DDD7
:1009F000019B01251D400024FF236BE78020C003DD
:100A0000044208D0074206D1041C3C436402640A35
:100A10005D46FF235EE704436402640AFF2359E74F
:100A20000198A4010125640ADBB2054052E77E2348
:100A30005B424A469B1A1B2B05DD019B01251D408D
:100A40000024002346E7221CDA404B469E339C409C
:100A5000231C5C1EA3411343580704D00F221A40E5
:100A6000042A00D004335A0105D5019B01251D40FD
:100A7000002401232EE701989C010125640A05400A
:100A8000002327E78027FF03019B3C4364020125E5
:100A90001D40640AFF231DE7F0BC0008FFFFFFF7BD
:100AA000F8B5C20F430244004D024800240E161C44
:100AB0009B09000EC90FAD09FF2800D17EE0012778
:100AC00079408A4258D0221A002A00DC89E00028A6
:100AD0001BD1002D00D075E0580704D00F221A401A
:100AE000042A00D00433590138D50134FF2C00D139
:100AF00083E09B0101225B0AE0B232405B02C40545
:100B0000580AD20720431043F8BDFF2CE4D08021BF
:100B1000C9040D431B2A00DD2DE1291C2020D140F2
:100B2000821A95406A1E95410D435B1B5801D3D52F
:100B30009B019F09381C02F0B3F8421F9740944272
:100B400060DC141B1F231B1B3A1C9F40611C3B1CB9
:100B5000CA405F1EBB4113430024BDE70122DB08EE
:100B6000E0B23240FF2C04D1002B7ED08021C9039B
:100B70000B435B025B0AC1E7211A002946DD00280E
:100B800026D0FF2CA8D08020C00405431B2900DDFF
:100B9000EFE0281C2027C840791A8D40691E8D413E
:100BA00005435B19590197D50134FF2C5CD073497B
:100BB00001221A400B405B0813438DE7002D00D043
:100BC0007FE77CE7013A002AAFD0FF2CA2D183E770
:100BD000002D00D180E701390029E2D0FF2CD5D1CA
:100BE0007AE7002A1ED1621CD2B2012A4EDD5F1BB9
:100BF0007A0126D5EF1A0E1C9CE701223240FF2015
:100C000000237BE75D4BA41A3B4065E7002946D1F2
:100C1000611CC8B201282ADDFF2925D0EB185B082A
:100C20000C1C59E7002C13D0FF2818D08024E404B2
:100C3000524223431B2A4DDD0123EB1A041C0E1CD8
:100C400074E7002F00D075E700220020002390E712
:100C5000002B3BD0D243002AEFD0FF28EAD12B1C37
:100C6000FF240E1C38E70022FF20002346E7002C5B
:100C70005AD1002B77D0002D00D12DE75B195801F8
:100C800000D429E73D4A0124134025E7002C15D163
:100C9000002B2FD1002DD7D02B1C0E1C1CE7002CB5
:100CA00021D1002B53D0C943002904D0FF284BD0B9
:100CB0001B294FDD01235B19041C73E7002B22D194
:100CC000002DD0D02B1C0E1CFF2405E72B1C041C70
:100CD0000E1C01E71C1C2026D440B21A93405A1E59
:100CE00093412343A9E7FF282ED08024E4044942FE
:100CF0002343DDE7002D00D1EEE65A1B500134D529
:100D0000EB1A0E1CE8E6FF24002D00D1E4E6802259
:100D1000DB08D203134204D0ED08154201D12B1C8D
:100D20000E1CDB00FF24D7E6002B0DD0FF24002D86
:100D300000D1D1E68022DB08D2031342F1D0ED08C6
:100D40001542EED12B1CECE72B1CFF24C4E62B1C18
:100D5000041CC1E61C1C2027CC40791A8B40591E6C
:100D60008B412343A7E72B1CB6E6131E00D0B3E646
:100D70006AE7012515E70125D7E6C046FFFFFFFB1F
:100D80004302590A4300C20F1B0E00207E2B0DDDCB
:100D90009D2B0CDC802000040143952B0ADC96205F
:100DA000C31AD9404842002A00D1081C7047034B9F
:100DB000D018FBE7963B9940F4E7C046FFFFFF7F62
:100DC00070B5041E3CD0C60F00D04442201C01F078
:100DD00067FF9E23251C1B1A962B0CDC08388440C9
:100DE0006402640ADBB2321C6402DB05600AD207CB
:100DF0001843104370BD992B0ADD0522121A211CDD
:100E0000D1400A1C011C1B318D40691E8D411543C8
:100E1000052801DD421F9540164C2C406A0704D07E
:100E20000F221540042D00D0043461010CD59F23FE
:100E3000181AFF281AD0A401640AC3B2321CD3E7DF
:100E4000002200230024CFE7E408FF2B04D0640233
:100E5000640ADBB2321CC7E7002C04D08020C00338
:100E600004436402640A321CFF23BDE7321CFF23E3
:100E70000024B9E7FFFFFFFB10B5041E33D001F0DB
:100E80000FFF9E231B1A962B09DC0838844064024E
:100E9000640ADBB26402DB05600A184310BD992BBB
:100EA0000ADD0522121A211CD1400A1C011C1B312B
:100EB0008C40611E8C411443052801DD421F944083
:100EC000144A2240610704D00F210C40042C00D0AA
:100ED000043251010AD59F23181AFF2816D0940115
:100EE000640AC3B2D6E700230024D3E7D208FF2B5D
:100EF00003D05402640ADBB2CCE7002A06D0802477
:100F0000E40314436402640AFF23C3E7FF230024BD
:100F1000C0E7C046FFFFFFFBF8B55F4656464446B4
:100F20004D46F0B40C034D00CE0F610A440F21432F
:100F3000C400180380465800400D8246D80F8446EE
:100F40004046400A530F0343D0006D0D371C8346C3
:100F50005246664500D19DE0AF1A002F00DC03E148
:100F6000002A38D1184300D0E4E0630709D00F23EA
:100F70002340042B05D0231DA342A4416442091938
:100F80001C1C080200D478E0CE4B6A1C9A4200D1A7
:100F900005E1CD4BE40819404807520549020443D6
:100FA0000B0B520D371C002000211B03201C1C0BB7
:100FB0000B0D1B05C54D2343520552081D4015431B
:100FC0006D006D08FF07291C39433CBC90469946CB
:100FD000A246AB46F8BDBB488542C6D0802000047F
:100FE0000343382F00DDECE01F2F00DD20E120203F
:100FF000C01B1A1C814682405846F8400243944662
:1010000058464A469040421E9041FB406246024389
:101010001F1CA21A9442A4416442C91B091B141C40
:101020000B02A2D549024F0A002F00D1C4E0381CA0
:1010300001F036FE021C083A1F2A00DDB7E0282125
:10104000091A201C9740C84007439440954200DD90
:10105000A9E0551B691C1F2900DDD8E01F22551B84
:101060003B1C221CAB40CA40AC40651EAC41134344
:10107000CF401C43391C002577E74807E4086A0580
:10108000C908520D371C04438E4B9D4248D00903BA
:101090000B0B88E7AA1A9446002A00DC98E0504619
:1010A000002853D08748854200D15EE780200004A5
:1010B00003436246382A00DDFDE01F2A00DD4BE1D4
:1010C00020226046101A1A1C8240824691465846D9
:1010D0006246D0404A4602439046584652469040A7
:1010E000421E9041424602436046C3401219A2424A
:1010F000A441644259180919141C080200D434E7A9
:10110000704B01359D4200D124E16F4B60081940BE
:10111000012323401C1C0443CB071C43490824E73C
:101120000B1C234300D1C7E180231B030B431B038C
:101130001B0B38E7013F002F64D15846221A944216
:10114000A4416442C91A091B141C69E75846184394
:1011500000D10AE70122524294446046002800D0A0
:10116000C5E058460219C2E7002F72D1681C40053D
:10117000400D012800DCDEE05A46A21A9442BF412D
:10118000C81A7F42C71B380200D488E05A46141B95
:10119000A3459241591A52428F1A664644E7371CBA
:1011A00000230024FFE64849AD1A3940DDE6271C3C
:1011B00028388740002449E7201C01F071FD2030C9
:1011C00038E75A461A43531E9A41D2B2002720E705
:1011D000002A00D0DDE0681C4205520D012A00DC27
:1011E0008EE0384DA84200D1B3E05D462A19A242F4
:1011F000A441644259180919CC07520814434908FC
:10120000051CB2E62F48854200D0EAE6ADE62B1C6D
:101210001F3B3A1CDA40131C20296DD03F22551B7E
:10122000AF403C43601E84411C43002100259CE6E6
:10123000381C20381A1CC240101C202F5ED04022BF
:10124000D71BBB405A461A43531E9A4102430027FC
:10125000DFE6002D3CD01B4DAA4500D194E080254F
:101260002D047F422943382F00DDADE01F2F00DD24
:101270002CE12025ED1B081C261CA840FE40AC409C
:101280000643651EAC413443F9405D462C1BA34523
:1012900092415B1A5242991A55466646C0E6131CA3
:1012A0003B43141C002B00D0BEE600270022002583
:1012B00000210024E8E65A461A43531E9A41D2B24E
:1012C000002313E7FF070000FFFF7FFFFFFF0F80F2
:1012D0000D1C254358D0FF43002F51D1041BA345BB
:1012E0009241591A5242891A5546664698E69648DE
:1012F000854200D0DDE638E6002792E70023A1E72B
:10130000081C2043002D00D0C0E0002800D1FBE0E5
:101310005846184300D128E658460219A242A44173
:10132000644259180919141C0A0200D41DE6874B9F
:101330000125194019E6081C2043002D39D1002849
:101340006DD15946194300D1BDE0191C5C46664673
:101350000BE6051C2A1CABE7604620381A1CC2406D
:1013600060469146202800D1ABE04022121A9340FB
:101370005A461A43531E9A414B461A430023B5E678
:10138000714DAA4500D06EE7191C5C46554666466D
:10139000EBE5002D1ED10D1C254373D0D543002D48
:1013A0006DD15C445C4592415918524289185546AA
:1013B000A3E6002849D15946194300D196E0191CEB
:1013C0005C466646604DD0E50C43611E8C41E4B23C
:1013D00000215AE75C4DAA4554D0554280221004A2
:1013E0000143382D00DD85E01F2D00DD95E0202232
:1013F000501B0A1C84468240201CE8400243904651
:1014000062469440601E844142461443E9405C4475
:101410005C459241CB185242991855466DE65846A4
:10142000184300D1A1E55846271ABC429241C81A78
:101430005242801A02026AD55846041BA3459241C3
:10144000591A5242891A66468FE55846184336D0D3
:101450004807E40804438020C9080003014208D07B
:10146000DD08054205D15946CA085C071443291C0A
:101470006646630FC9001943E400334D75E5324AEF
:101480009245AED1191C5C4655466EE5002837D012
:101490005846184313D080254807E408C9082D038F
:1014A00004432942E5D0D8082842E2D15D46EA0843
:1014B0005C071443011CDCE70023002473E5224D84
:1014C00053E5002354E700270022F1E63D1C203DB0
:1014D0000A1CEA40151C202F31D04026F71BB940CA
:1014E0000C43611E8C412C430021CEE6164A002796
:1014F000151CDDE60C43611E8C41E4B2002186E739
:10150000191C5C46104D30E5191C5C462DE5031C8A
:101510003B43D8D0011C3C1C27E520204042401909
:101520000A1CC2409046202D0BD04020451BA940EC
:101530000C43611E8C4145462C43002167E7002186
:10154000CEE70021F4E7C046FF070000FFFF7FFF62
:10155000F0B5564644465F464D46F0B41F1C0B039B
:101560001B0B98464B0087B0041C81465B0DC80FCF
:10157000161C9A460090002B51D06A4B9A4531D0E8
:101580008022414652030A43630FD2001A43664B3E
:1015900090460025E20091469A44002402953B03C0
:1015A0001B0B9B46FD0F7B00311C5B0D019560D032
:1015B0005C4A934254D08021584649030143720F3C
:1015C000C9001143584A8B469B18F1000020009A2D
:1015D00004436A4003920F2C00D9ADE0534EA4009F
:1015E0003459A746404604436ED100210225082401
:1015F000884689460295D2E7009C0298C346494630
:101600000194022864D0032800D1ABE2012800D065
:1016100038E2019A002402400025A14660E04346DA
:1016200023434AD04046002800D1C0E101F038FBF6
:10163000031E272B00DDB3E128210D1A211C083BD6
:101640004246E9409A400D1C1543221C9A40A84688
:101650009146374B00251B1A9A46002402959EE7B7
:101660005A4616430320002EB1D1B3460021022072
:10167000ADE75A4632431BD05B46002B00D18AE1CE
:10168000584601F00DFB272800DD7DE12822171ABE
:10169000011C321C08395B46FA408B40171C1F4363
:1016A000331C8B40BB46191C214B1B1A00208EE7B4
:1016B0000027BB460021012089E7002001250424E2
:1016C0008046814602956AE703250C24029566E769
:1016D000019C0394039D01222A400024114DA14640
:1016E000002000212403260B0C0D2405114B34434C
:1016F0002D0523402B435B005B08D207191C48468D
:10170000114307B03CBC90469946A246AB46F0BD9B
:101710000022802424039146024DE1E700240025A5
:10172000A146DDE7FF07000001FCFFFF30BD000818
:101730000DFCFFFFFFFF0F805546ED1A0495D845BD
:1017400000D953E100D14EE1049C0025013C4E46F6
:1017500004944746A946584603020C0E1C4309024E
:10176000250C23041B0C0091381C291C0193FEF747
:10177000E9FC019983464143381C8A46291CFEF73F
:1017800025FD330C090419438A450CD95B46091918
:10179000013B8C4200D947E18A4500D844E102224E
:1017A0005242934409195346CB1A181C291C9846D7
:1017B000FEF7C8FC071C0198291C78438246404666
:1017C000FEF704FD36040B04360C33439A4509D961
:1017D0001B197A1E9C4200D924E19A4500D821E1C8
:1017E000023F1B195E4632041743380CBB46009E6D
:1017F000009F51463F0C32045B1A5946BA46120C00
:101800000F043F0C904651467A434F4341464143B3
:1018100056467043CF19160CBE19B14202D9802723
:101820007F02C019310C12043604120C4018B6188D
:10183000834200D2C4E000D1BEE0191A4846861B9C
:10184000B145BF417F42CF1BA74200D113E1291C04
:10185000381CFEF777FC019902904143381C8946F9
:10186000291CFEF7B3FC330C0904194389450CD934
:10187000029B0919013B8C4200D9FFE0894500D841
:10188000FCE0029F0919023F02974F46CF1B381C0C
:10189000291C0597FEF756FC071C0198291C784364
:1018A00081460598FEF792FC36040904360C0E4377
:1018B000B14509D936197B1EB44200D9E0E0B145E3
:1018C00000D8DDE0023F3619029D4946761A290408
:1018D00039430B0457460A0C1B0C404645465843F7
:1018E00055437B437A43EB18070CDB199D4202D921
:1018F00080256D0252191D0C00041B04000C5219A6
:101900001B18964235D300D1FCE001231943049EF5
:10191000994FF519002D00DCA1E0480709D00F23ED
:101920000B40042B05D00B1D8B42894149428B444F
:10193000191C5A46D20107D5904B5C46049E80275D
:101940001C40FF00A346F5198D4B9D427ADD039C98
:101950000122224000248B4DA146C1E680242403AD
:10196000474627424CD13C432403240B009A854D23
:10197000B6E63619481EB4425ED9011C9642C4D15F
:10198000009E9E42C1D1C2E7031C283B311C9940F6
:101990008B46002188E6301C01F082F9203072E687
:1019A000283B211C994000228846914651E6201C84
:1019B00001F076F920303BE60021B14500D33DE748
:1019C000009F5A46B944B945BF417F423F19FB18B1
:1019D000013A9C421ED2984200D97EE000D1B5E087
:1019E000191A93462AE7894500D8ADE64846464687
:1019F00042467708D3074608C0071E438146AAE639
:101A00005846204212D1044324032A1C240B894641
:101A10005C4D65E6A342E3D1009F4F45DBD9211A17
:101A200093460BE7171CDDE69B46BCE63C432403CC
:101A3000240B009A534D53E6B24259D800D18AE0A4
:101A4000011C62E75F46C9087B07039E0B437C02CB
:101A50006D0501229946240B6D0D324040E64A4B3C
:101A6000049FDB1B382B10DD039C01222240002445
:101A70000025A14634E60121494248E7029304E7E4
:101A80001F1C21E7019C039441E71F2B40DC3F48CA
:101A9000049F0C1C3A1858469140DC40904020436B
:101AA0000A1C511E8A41011C11435A46DA40131C7C
:101AB000480709D00F220A40042A05D00A1D8A428D
:101AC000894149425B18111C1A0234D5039C01223A
:101AD000224000240125A14602E6009F022149423E
:101AE000B9448B44B945894149420919CB18A4E648
:101AF000009D881E6900A942AD416D422C1936191E
:101B000000913AE7002B00D033E70024009437E738
:101B10001F4A049C5D46121BD5402A1C202B1FD057
:101B20001C4E5F46A3199F403B1C19434B1E994115
:101B300011430023BCE75A07C9080A43039F914693
:101B40005B0201221C0B3A400025C9E54E45C4D872
:101B50009346002172E6009F9F42C9D3011C0FE704
:101B60000023E2E7802424035F463C432403240B44
:101B7000019A8946034DB3E5FF030000FFFFFFFE16
:101B8000FE070000FF07000002FCFFFF1E0400002C
:101B9000E2FBFFFF3E040000F0B55F4656464D46AF
:101BA0004446F0B40D1C041C8046E80F814618031F
:101BB0000F03000B3F0B83B084461B48009749007E
:101BC0005E00DF0F490D9246760DBB4681420CD078
:101BD0001548864210D00120B14215D003B03CBC5C
:101BE00090469946A246AB46F0BD009F0120274390
:101BF000F4D10D488642EED1604602430120002A0E
:101C0000ECD10120B142E9D1009B6345E6D1D0453A
:101C1000E4D1D94506D00029E0D11C43201C441E44
:101C2000A041DBE70020D9E7FF070000F0B55F46E1
:101C300056464D464446F0B4CD0FDE0FAC461D036C
:101C40002D0BB146374E0F034C00AB465D0080466E
:101C50003F0B640D92466D0DB44232D0314EB54209
:101C600035D0002C0ED1384341424141081C002D93
:101C70000BD0002919D1CC452DD0654668420123EF
:101C8000184318E0002DF6D1281C59460A43534248
:101C90005341002806D1002BEDD063465842012362
:101CA000184308E00020002B05D14A46504250411D
:101CB0004042012318433CBC90469946A246AB469D
:101CC000F0BD3E1C0643C9D002204042F3E75E4609
:101CD0001643C6D0F8E7AC4207DC0BDA614648424F
:101CE0004841404201231843E5E76646704201231C
:101CF0001843E0E75F450AD80ED000205F45DAD2EE
:101D0000654668426841404201231843D3E7624672
:101D1000504201231843CEE7D045F8D80020D045E3
:101D2000EED3C8E7FF070000F0B556464D464446DF
:101D30005F46F0B40D1C83B0041C0190E80F81468F
:101D400018030F03000B3F0B8446354800974900EA
:101D50005E00DF0F490D9246760DB846814234D0C1
:101D60002F48864236D0002918D0002E1FD1341CAF
:101D700067463A4353425341002C1FD00020002BAA
:101D800005D142465042504140420123184303B01E
:101D90003CBC90469946A246AB46F0BD0098044331
:101DA00060426041041C002EE2D00028E9D1C14508
:101DB00015D04F46784201231843E8E7002BF6D0B0
:101DC0004B46584201231843E1E7009F0220274376
:101DD000DDD1C5E7674602201743D8D1C3E7B1423A
:101DE00004DD4A46504201231843D0E7B14207DBE5
:101DF00000986045E4D80AD0009F00206745C6D20D
:101E00004F4678427841404201231843BFE7019A88
:101E10005245D5D8019A00205245F1D3B7E7C046C4
:101E2000FF070000F0B5564644465F464D46F0B405
:101E30001F1C0B031B0B9A464B0087B0041C8046EB
:101E40005B0DC80F161C02938146002B68D0694BAE
:101E50000299994232D08022534652031A43D2004B
:101E6000630F1A439246644AE00089188046029143
:101E7000002400253B031B0B9B467800FB0F321C04
:101E8000400D039300D175E05A4B984269D08022EF
:101E9000594652030A43730FD2001A43564B9346D6
:101EA000C018F200002303994E4671401C430F2CCA
:101EB00000D9A9E0514EA4003459A74653461C430B
:101EC00000D087E00025AA46A84608240225D1E7CD
:101ED0004946022D6CD0032D00D117E2012D00D010
:101EE00058E10D40EDB20024A9460023A046002091
:101EF000002125030A0D1C052D0B1205404B2A431A
:101F0000134023435B004C465B08E207191C404624
:101F1000114307B03CBC90469946A246AB46F0BD83
:101F20005346234350D05346002B00D184E1504602
:101F300000F0B6FE031E272B00DD76E128210D1AE6
:101F4000211C083B5246E9409A400D1C1543221CB7
:101F50009A40AA4690462B4B00241B1A0293002558
:101F600088E75B461E430323002E9CD1B346002224
:101F7000022398E75B46334321D05846002800D11E
:101F80004EE100F08DFE272800DD42E128210F1AE6
:101F9000021C311C083A5B46F94093400F1C1F435A
:101FA000331C9340BB461A1C164B181A00237AE7C1
:101FB00001230B4000249946A0460E4B97E70027CB
:101FC000BB46002201236EE7002104248A4688468E
:101FD00001254FE70C2403254CE700258024A94662
:101FE0002403A846034B82E7DA46904603991D1C5A
:101FF0006FE7C046FF07000001FCFFFF70BD00084F
:10200000FFFF0F800DFCFFFF029F160C3818049095
:102010004046070C0004000C1204120C031C53432E
:10202000041C3D1C7443554398463B1C7343641980
:10203000A44644460293230C63449D4204D9029D66
:10204000802464022D1902951D0C039545462C042D
:102050001B04240C1C1905945C46230C051C5843D6
:102060002404240C8446381C604365435F43814646
:10207000CC44280C6044BB46814502D980277F02AE
:10208000BB442D04070C2D0C000440195546BC46DA
:102090002F04E3448446280C3D0C2F1C5743B846BC
:1020A0002F1C77434243B94647463F0C9144BA46FA
:1020B000D14446434A4502D980225202B6184F46BF
:1020C0003A0CB6183A0447463F043F0CB8462F1C5A
:1020D00067435D434443584365190190380C2D18FC
:1020E0004244B846AC4204D9019880235B02C01830
:1020F0000190039C029F201C6044C0196045A441CC
:1021000047466442A4462B043C049946240C4C44A4
:10211000A046D8448018C246E244904292415746B5
:1021200052429146F219E245BF417F424B46BC46BE
:10213000D845BF41D4187F4263461F432D0C7F19F9
:10214000B24292414C45AD4152426D421543019E0F
:102150007D19AB19E20D5B02059F134342023A431E
:102160009A46531E9A41C30D101C18436402204323
:1021700080465046C0010DD5454601225646049C76
:102180006B082A401A43F30701341A437608049473
:102190009046B246049E634FF319002B61DD404622
:1021A00040070BD00F2244462240042A06D0424664
:1021B0000432424580414042824490465546ED01FA
:1021C00007D5594B5646049F80201E40C000B2469A
:1021D0003B18564A934200DDEAE644465546E2087B
:1021E0006807104301226C025B050A408046240BFD
:1021F0005B0D91467BE6DA4690461D1C69E680241D
:102200002403574627421CD13C432403240B484B4C
:102210006DE6031C283B311C99408B460022C3E627
:10222000301C00F03DFD2030ADE6283B211C9940DC
:1022300000228A4690468EE6201C00F031FD2030B8
:1022400078E65846204207D1044303992403240B1F
:1022500089469046364B4AE63C432403240B344BD4
:1022600045E6344B049E9B1B382B06DD01230B40B7
:1022700000249946A046002339E61F2B25DC049C48
:102280002D4D46466019524644468640DC40824009
:102290005746301C2243DF40441EA04102433B1CF2
:1022A000540709D00F201040042805D0101D90427B
:1022B000924152429B18021C1D021AD501230B4069
:1022C00000249946A046012311E61C48049C55466B
:1022D000001BC540281C202B16D0194E5746A219AA
:1022E00097403A1C43461A43531E9A410243002327
:1022F000D6E758075B02D2081C0B01230B401043A2
:10230000994680460023F2E50022EBE7802424036F
:1023100050460123044319402403240B8946044BEF
:10232000E5E5C046FF030000FFFFFFFEFE070000DB
:10233000FF07000002FCFFFF1E040000E2FBFFFF9E
:102340003E040000F8B55F46564644464D46F0B49C
:102350000C034D00CF0F610A440F2143C400180342
:10236000DE0F8046B44646465800760A530F334384
:10237000D600C94A6D0DBA46400DB346904200D111
:10238000EBE06246012672409446674500D1A1E029
:102390002F1A002F00DC08E100283BD158461843D3
:1023A00000D0E8E0600709D00F232340042B05D0BC
:1023B000231DA342A441644209191C1C0A0200D433
:1023C00079E0B54B6A1C9A4200D109E1B34BE408AD
:1023D00019404807044349025205012750460B0B98
:1023E000520D0740002000211B03201C1C0B0B0D6D
:1023F0001B05AB4D2343520552081D4015436D008C
:102400006D08FF07291C39433CBC90469946A246FB
:10241000AB46F8BDA0488542C4D0802000040343E9
:10242000382F00DDF0E01F2F00DD24E12020C01B4D
:102430001A1C5E468240FE40324394465A46824011
:10244000101C421E9041FB40624602431F1CA21A10
:102450009442A4416442C91B091B141C0A02A1D561
:1024600049024F0A002F00D1C9E0381C00F018FCC7
:10247000021C083A1F2A00DDBCE02821231C091A8F
:102480009740CB401F439440954200DDAEE0551B82
:10249000691C1F2900DDDDE01F22551B3B1C221C8F
:1024A000AB40CA40AC40651EAC411343CF401C4317
:1024B000391C002576E74807E4086A0501275646D7
:1024C000C908520D37400443734B9D4249D009035C
:1024D0000B0B87E72A1A9446002A00DC9BE00028B1
:1024E00055D06D48854200D15CE78020000403434D
:1024F0006046382800DD09E11F2800DD50E1624612
:102500002020801A1E1C8640B1465E46D6404A46B0
:1025100032435E4686409046301C421E9041424601
:1025200002436046C3401219A242A44164425918B2
:102530000919141C080200D434E7574B01359D4299
:1025400000D142E1554B60081940012323401C1C77
:102550000443CB071C43490824E71E4300D014E77B
:102560000FE70B1C234300D1CFE180231B030B4358
:102570001B031B0B36E7013F002F66D15E46A21BF3
:102580009442A4416442C91A091B141C66E75846C8
:10259000184300D106E701267642B444604600287D
:1025A00000D0CAE05E463219BEE7002F7AD1681C1F
:1025B0004005400D012800DCE3E05A46A21A94428F
:1025C000BF41C81A7F42C71B3E0200D492E0584662
:1025D000041BA3459241591A52428F1AE24641E721
:1025E000534601271F4000240023FBE62B49AD1A68
:1025F0003940D7E6271C28388740002444E7201CB0
:1026000000F04EFB203033E75A461A43531E9A41DE
:10261000D2B200271BE7002A00D0E1E0681C460583
:10262000760D012E00DC91E01B4DA84200D1F7E0B1
:102630005E463219A242A441644259180919CC07D6
:10264000520814434908051CACE61348854200D0E3
:10265000E6E6A7E62B1C1F3B3E1CDE40331C202970
:1026600070D03F22551BAF403C43601E84411C4349
:102670000021002596E6381C20381E1CC640301C60
:10268000202F61D04022D71BBB405A461A43531E0D
:102690009A4102430027DAE6FF070000FFFF7FFFB1
:1026A000FFFF0F80002D38D0B94DA84200D192E035
:1026B00080252D047F422943382F00DDAAE01F2FFB
:1026C00000DD2CE12025ED1B0E1CAE40B046261C83
:1026D000FE404246AC401643651EAC413443F940CF
:1026E0005A46141BA34592415B1A5242991A051C83
:1026F000E246B3E6131C3B43141C002B00D0B1E6AA
:1027000000270022002500210024DDE65A461A4356
:10271000531E9A41D2B2002305E70D1C25435AD01F
:10272000FF43002F53D15A46141BA3459241591A17
:102730005242891A051CE24690E69548854200D02F
:10274000D6E62FE600278FE700239EE7081C2043EC
:10275000002D00D0C3E0002800D1F6E05846184311
:1027600000D11FE658460219A242A44164425918FA
:102770000919141C0A0200D414E6864B01251940DD
:1027800010E6081C2043002D3AD1002800D089E033
:102790005946194300D1BFE0191C5C46E24601E6E8
:1027A000604620381A1CC2406646101C202E00D1FC
:1027B000B0E04022921B93405A461A43531E9A415E
:1027C00002430023AFE6724D00272A1C9BE7704DA1
:1027D000A84200D070E7191C5C46051CE246E1E502
:1027E000002D20D10D1C254375D0D543002D6FD170
:1027F0005C445C459241591852428918051C99E67F
:10280000002835D159461943DDD0191C5C46E246F3
:102810005F4DC7E50C43611E8C41E4B200215FE7C8
:10282000051C021C6FE75A4DA84254D05542802225
:1028300016043143382D00DD81E01F2D00DD91E0CD
:102840002022561B0A1CB446B240261CEE403243DE
:10285000904662469440661EB44142461443E940A5
:102860005C445C459241CB1852429918051C61E6C4
:10287000584618434CD04807E40804438020C90850
:102880000003014208D0DD08054205D15946CA08B7
:102890005C071443291CE246630FC9001943E40096
:1028A0003B4D7FE55846184300D17BE55E46A71BAC
:1028B000BC429241C81A5242801A06024CD5584670
:1028C000041BA3459241591A5242891AE24669E50E
:1028D0002F4A9042AED1191C5C46051C62E50028C7
:1028E00036D05846184313D080254807E408C90855
:1028F0002D0304432942CFD0D8082842CCD15D46CD
:10290000EA085C071443011CC6E70023002469E5BC
:102910001F4D47E500234FE700270022F3E63D1C4B
:10292000203D0E1CEE40351C202F2DD04026F71BDD
:10293000B9400C43611E8C412C430021D0E60C436E
:10294000611E8C41E4B200218AE7191C5C4629E52E
:10295000191C5C460E4D25E5031C3B43DCD0011CD5
:102960003C1C1FE52026764276190A1CF240904650
:10297000202D0BD04026751BA9400C43611E8C41B5
:1029800045462C4300216BE70021D2E70021F4E704
:10299000FF070000FFFF7FFF70B50B1C124C0903FF
:1029A0000E0B5900021C490DDD0F0020A14211DD64
:1029B0000E4881420FDC8020400306430C48401A39
:1029C0001F280BDD0B4A521AD640321C5042002DF4
:1029D00000D1101C70BD084BE818FBE7074BC24044
:1029E000C9188E403243F1E7FE0300001D040000C9
:1029F0003304000013040000FFFFFF7FEDFBFFFF27
:102A0000F8B5041E31D0C70F00D04442201C00F09E
:102A100047F9184D2D1A0A2819DD0B388440240374
:102A20006D05240B6D0D3A1C0026002000210B0DB6
:102A30002403240B1B0523430F4C2D051C402C4362
:102A400064006408D307211C301C1943F8BD061C20
:102A50001536231CB3401E1C0B23181AC440240334
:102A60006D05240B6D0D3A1CDFE7002200250024C4
:102A70000026DAE71E040000FFFF0F8010B5041ED9
:102A800028D000F00DF9154A121A0A2815DD0B3866
:102A9000844024035205240B520D00230020002102
:102AA0002403181C0B0D240B1B0523430C4C12058F
:102AB0001C4014436400610810BD031C1533211C25
:102AC00099400B1C0B21081AC44024035205240B07
:102AD000520DE3E7002200240023DFE71E0400007C
:102AE000FFFF0F8043001B0E5A1C4102D2B270B58B
:102AF0004C0AC50F012A17DDE02292006407090B7A
:102B00009818002200231E0D221C34050C431B497B
:102B1000400540082140014349004908ED070B1CCE
:102B20002B43101C191C70BD002B15D1002C1CD080
:102B3000201C00F0B5F80A281ADC0B21091A231C06
:102B4000CB40191C031C15339C400D4B0903181A6C
:102B50004005090B400DD4E7002C03D06407090B96
:102B60000848CEE707480021CBE700200021C8E74E
:102B7000011C0B398C40211C0024E6E7FFFF0F806D
:102B800089030000FF070000F0B54B000D03420F62
:102B90005B0D6D0A15435A1C5205CC0FC600520D31
:102BA000012A27DD394FDA19FE2A1ADC002A35DD21
:102BB0008001ED00431E98412843760F30434307C0
:102BC00004D00F230340042B00D004308021C9041B
:102BD000014027D00132FF2A1DD083015B0AD1B208
:102BE00001E0FF2100235802C905400AE407084319
:102BF0002043F0BD002B06D1354311D10021002028
:102C000043025B0AEFE72E43EBD08020ED00800407
:102C10002843FF22D3E7FF210023E4E717320DDA30
:102C200005200022C008D1B2FF2AE9D10028D9D05E
:102C30008023DB0303435B025B0AD4E78022144951
:102C400012041543C91A1F290DDC124A371C9B18A0
:102C5000281C9F4098403B1C5A1E93411843CE406D
:102C600030430022ABE70C4F2A1CFF1AFA40171C16
:102C7000202909D0094A98188540281C3043461E4F
:102C8000B041384300229AE70020F7E780FCFFFFBD
:102C90009E03000082FCFFFF7E030000A2FCFFFFFA
:102CA0001C2101231B04984201D3000C10391B0A7C
:102CB000984201D3000A08391B09984201D3000940
:102CC000043902A2105C40187047C0460403020297
:102CD0000101010100000000000000009C46030407
:102CE000F0B51B0C17043F0C150C1E1C041C000C2B
:102CF0007E436B4347434543FB18300C181887420B
:102D000002D980235B02ED18030CED1863465C4387
:102D10004A433604360CA118000480194919F0BD45
:102D2000F0B544465F4656464D46F0B41C1C85B08F
:102D3000002900DADBE00F1C0021061C8A46101C6B
:102D4000191C002C00DAC9E00196009089468046E3
:102D5000002951D1B84200D871E0FFF7A1FF002847
:102D600009D020234546311C1B1A85408740D94095
:102D7000A8460F4386404246150C13041B0C291C21
:102D8000381C9B46FDF7DEF95B464343041C291CB7
:102D9000381C9946FDF71AFA330C0804184381458C
:102DA00009D94044631E804500D978E1814500D8A7
:102DB00075E1023C40444946411A8946081C291CD9
:102DC000FDF7C0F95A464243071C291C4846934662
:102DD000FDF7FCF936040904360C0E43B34507D958
:102DE00046447B1EB04502D8023FB34500D81F1CA5
:102DF00024042743002403E0B94211D9002400270A
:102E00005246381C211C002A03D03B1C002158428A
:102E1000A14105B03CBC90469946A246AB46F0BDE8
:102E2000081CFFF73DFF041E00D0BFE0B94500D2EB
:102E300042E1019D0099071C8D424741E0E70028CF
:102E400004D101200021FDF77DF980464046FFF7BF
:102E500027FF002852D1414644460B043C1B1B0C63
:102E6000A3460D0C00930124291C5846FDF76AF96E
:102E7000009F81464743291C5846FDF7A7F9330CAC
:102E8000090419438F4208D94B464144013B884508
:102E900002D88F4200D91AE19946C91B8B46081CFB
:102EA000291CFDF74FF9009B291C4343071C58467A
:102EB0000093FDF78BF93604009D0904360C0E4390
:102EC000B54207D946447B1EB04502D8023FB54201
:102ED00000D81F1C49460E04374391E75246D2439F
:102EE000031C0C1C924600215842A1412CE70027EC
:102EF00046428F41012149428A4620E720231B1A7E
:102F00004246351C82403C1CDD40DC4087402B1C87
:102F1000150C3B43291C8640201C00931704904647
:102F2000FDF710F93F0C011C794381468B46201CAC
:102F3000291CFDF74BF9009C0904230C19438B4510
:102F40000CD94B464144013B884500D9BDE08B4537
:102F500000D8BAE002225242914441445C460C1B24
:102F6000201C291C0194FDF7EDF8391C4143041C79
:102F70008B460198291CFDF729F9009A09041304CE
:102F80001B0C19438B4509D94144631E884500D960
:102F900097E08B4500D894E0023C41445B46CB1A55
:102FA00049469B460B041C4300975DE7009D202388
:102FB0001B1A4A468240DD401543391C009AD9400D
:102FC00082408846311C0092D9403A1C82400B1C3A
:102FD000134301932F0C2B041B0C391C4046029306
:102FE000FDF7B0F8029A81464243391C40469346A9
:102FF000FDF7ECF8019A0904130C19438B450AD923
:103000004B464919013B8D425DD88B455BD9022364
:103010005B42994449195A468A1A101C391C03927A
:10302000FDF790F8029B80464343391C03989B466A
:10303000FDF7CCF8019A090413041B0C19438B45C6
:103040000AD943464919013B8D4238D88B4536D9B8
:1030500002235B42984449195D464D1BAB464946E5
:10306000009D0F04424617432A04120C3B042D0C0A
:103070001B0C380C111C594342436B436843D31853
:103080000D0C5B198C469A4202D98022520280189C
:103090001D0C401983450CD303D00024B0E61C1C42
:1030A00089E665462A041B04120C9B18A6409E4222
:1030B000F3D2013F0024A3E600240127A0E69846AE
:1030C000CAE71C1C6AE79946A5E7994646E702222B
:1030D000524291444144E0E6F0B55F4656464D46C3
:1030E0004446F0B40D1C85B0061C924698460290EA
:1030F000019103921F1C141C8346A946002B59D131
:10310000AA4269D9101CFFF7CBFD00280AD0202362
:103110001B1A311CD94085400B1C2B438640844030
:103120009946B346250C23041B0C291C4846984697
:10313000FDF708F84646071C4643291C4846FDF79C
:1031400045F85A460904130C19438E4209D9091946
:103150007B1E8C4200D957E18E4200D854E1023FD9
:103160000919891B8946081C291CFCF7EBFF4346FB
:103170004343061C291C48469846FDF727F85A4643
:10318000130409041B0C1943884508D90919731E37
:103190008C4200D936E1023E884500D832E138043D
:1031A00030430027391C05B03CBC90469946A246E6
:1031B000AB46F0BD019A934262D8181CFFF770FD30
:1031C000041E60D1019B9F4200D22CE1029F039913
:1031D0008F4260410027E5E7002A04D10120002149
:1031E000FCF7B0FF041C201CFFF75AFD002800D09C
:1031F000B9E023042D1B1B0CA946260C9846012779
:10320000311C4846FCF79EFF41464143051C8A4657
:103210004846311CFCF7DAFF5A460804130C1843E1
:10322000824507D900196B1E844202D8824500D915
:1032300010E11D1C5346C31A181C311C9A46FCF79A
:1032400081FF41464143814688465046311CFCF788
:10325000BDFF5A46130409041B0C194388450BD9BA
:103260004B460919013B8C4200D9CFE0884500D874
:10327000CCE002235B42994428044946084391E785
:10328000002700208EE720231B1A42465746824023
:10329000DF401743524682400192321CDA40291C1B
:1032A000D9408540131C2B4302933D0C3B041B0C5F
:1032B0008846081C291C9A46FCF744FF53464343A2
:1032C0008146291C40469B46FCF780FF029A090470
:1032D000130C19438B4506D94B46C919013B8F4244
:1032E00000D8ABE099465A468A1A101C291C93460E
:1032F000FCF728FF53464343291C804658469A460C
:10330000FCF764FF029A090415042D0C29438A4531
:1033100006D94346C919013B8F4200D886E098463A
:103320005746CF1BBA464946019F08044246104300
:103330003D042D0C03043F0C1B0C020C291C5943AB
:1033400055437B437A43EB180F0CDB198C469D42A7
:1033500002D980277F02D2191D0C521992455FD3E2
:1033600056D000271EE720231B1A311C2F1CD940E2
:10337000DF4085400B1C84402B4386400193B346BD
:103380002304260C1B0C381C311C9846FCF7DAFE73
:1033900042464243051C311C381C9146FCF716FF7F
:1033A000019F09043B0C1943894507D909196B1E74
:1033B0008C424DD889454BD9023D09194A468A1A93
:1033C000101C311C9246FCF7BDFE43464343071CCC
:1033D000311C50469946FCF7F9FE019A0904130482
:1033E0001B0C1943894507D909197B1E8C422DD81E
:1033F00089452BD9023F09194B46CB1A2D04994612
:103400002F43FDE61E1CCAE61F1CAAE6994633E7B9
:1034100061460A041B04120C9B18A6409E42A0D2CF
:1034200001380027BEE600270120BBE68A4500D808
:1034300075E702235B429844C91971E78B4500D8B0
:1034400050E702235B429944C9194CE71F1CD3E79C
:103450001D1CB3E7023D0019ECE6C04608B503F0B9
:10346000F5FD03F060FB08BD08B5024801F062FFFE
:1034700008BDC046F406002008B5024802F002FB71
:1034800008BDC0461C08002008B5024803F0FAFC3D
:1034900008BDC0466407002008B5F020000103F015
:1034A000EFF908BD074B10B55A6B01214C420A4396
:1034B00000215A63201C0A1C03F0C2FA201C03F0EE
:1034C000F1FA10BD00100240214B70B5D96A0122FB
:1034D0001143D962D96A88B00A400092009AD96A29
:1034E00004221143D962D96A02260A400192019A44
:1034F000DA6AA0203243DA62DA6A032532400292A5
:10350000029A596B8022B2400A435A630024FF2377
:1035100003A9C00503930495059403F0EDF803A9EE
:103520000C4803950495059403F0E6F83F2303A99E
:10353000094803930495059403F0DEF8311C221C1E
:103540000C2003F07DFA0C2003F0ACFA08B070BD3B
:103550000010024000040050000800507FB50368CE
:10356000124A934207D1124B8022596B52010A43EF
:103570005A6338230AE00F4A934214D10C4B80223D
:10358000996BD2010A439A63E0231B020193022341
:10359000029301230393032304930748002301A903
:1035A000059303F0A9F807B000BDC0460030014004
:1035B00000100240003800400004005008B50268C6
:1035C000084B9A420CD1084B04215A6B14200A4331
:1035D0005A630121002203F033FA142003F062FA47
:1035E00008BDC046000801400010024030B5026826
:1035F000104B87B09A421BD10F4B8022596BD201DE
:103600000A435A63C0230193022302930325012333
:1036100000240A4801A903930495059403F06CF86B
:103620001B20291C221C03F00BFA1B2003F03AFA82
:1036300007B030BD003801400010024000040050C7
:103640000023054A0121D218494291600C33002120
:103650005160F02BF5D170476C05002070B5002348
:103660000C255D43074C62199668013604D1516000
:1036700028519360181C04E00133142BF0D1012071
:10368000404270BD6C05002070B50C264643074DC6
:10369000AC19A368013308D0606803F083FD0023F0
:1036A0006360735101235B42A36070BD6C05002011
:1036B000044B012252421A605A609A60DA601A6121
:1036C0007047C046540900200020074B82009958DB
:1036D000013103D10021D150C0B203E001300528EF
:1036E000F3D1FF207047C046540900200C23434308
:1036F000124A70B5D3185C68051C6368104E5A1CDA
:1037000006D1FFF7E1FF606080003358637013E07B
:103710009B00F35862789A420ED0A02080216370FB
:10372000C005090203F0A8F8237862785B009A428A
:1037300002D1281CFFF7A8FF70BDC0466C05002011
:103740005409002070B50C1C061C03F0A7F80A4BA6
:10375000E418A400201C03F0BDF8211C051C3268ED
:10376000022003F0C9F80024A04201D16C426C4150
:1037700003F0A6F8201C70BD0000020270B50C1CFE
:10378000061C03F08BF80A4BE418A400201C03F07D
:10379000A1F8211C051C3268022003F0ADF80024BA
:1037A000A04201D16C426C4103F08AF8201C70BD2C
:1037B0000000020200000000F8B5041C3448604319
:1037C000FDF7FEFA051C3348001BFDF7F9FA011C52
:1037D000281CFCF757FE3049FCF754FEFFF782F92E
:1037E00007F0AEFF214B204A0D1C041CFEF71AFB0C
:1037F0001F4A204BFDF790FB1F4A204B061C0F1C55
:10380000201C291CFEF70EFB2B1C221CFEF70AFBBA
:10381000021C0B1C301C391CFDF77EFB184A194B8F
:10382000061C0F1C201C291CFEF7FCFA2B1C221C5A
:10383000FEF7F8FA2B1C221CFEF7F4FA021C0B1CF4
:10384000301C391CFDF768FBFFF79EF9011CFE20B8
:103850008005FCF717FEFFF745F90B4A0B4BFEF707
:1038600071FDFFF791F9F8BD85EEC605D61F303F13
:103870005DE5F7A0E1796B3F680CE2CDFD90CC3EB1
:103880006375DC3F3EC37B3E6666666666127140CA
:10389000E8800000FF0F00000050C347C046C0464C
:1038A00010B51D4C052828D8FCF738FC0310141A55
:1038B0001E220022201C194903F096FE002001213F
:1038C00001F04EFC164801F0CFFC1AE0201C15490F
:1038D000012202E01449201C022203F085FE10E0C0
:1038E000201C12490322F8E7201C11490422F4E7A6
:1038F000201C1049052203F077FE201C0E4903F01E
:1039000095FE201C03F09AFEFA2382B2211C9B0034
:103910000A4801F0A9FF10BD54080020B0BD0008FE
:10392000E9BD0008F7BD000826BE00084ABE000831
:1039300076BE000899BE0008D0BE0008F40600203C
:1039400070B54A4C4A49201C03F070FE201C03F05D
:1039500075FEFA25474EAD002B1C82B2211C301C8F
:1039600001F082FF4449201C03F060FE201C03F09C
:1039700065FE2B1C82B2211C301C01F075FF3F49F3
:10398000201C03F053FE201C03F058FE2B1C82B2B7
:10399000211C301C01F068FF3949201C03F046FE51
:1039A000201C03F04BFE2B1C82B2211C301C01F0AA
:1039B0005BFF3449201C03F039FE201C03F03EFE5F
:1039C0002B1C82B2211C301C01F04EFF2E49201C02
:1039D00003F02CFE201C03F031FE2B1C82B2211CB4
:1039E000301C01F041FF2949201C03F01FFE201C60
:1039F00003F024FE2B1C82B2211C301C01F034FF8A
:103A00002349201C03F012FE201C03F017FE2B1C80
:103A100082B2211C301C01F027FF1E49201C03F03C
:103A200005FE201C03F00AFE2B1C82B2211C301C58
:103A300001F01AFF1849201C03F0F8FD201C03F0C8
:103A4000FDFD2B1C82B2211C301C01F00DFF13491F
:103A5000201C03F0EBFD201C03F0F0FD2B1C82B2B8
:103A6000211C301C01F000FF70BDC046540800202E
:103A7000EDBE0008F406002009BF000848BF00089A
:103A8000ADBF0008F8BF00085BC0000877C00008A1
:103A900093C00008ACC00008BFC00008D7C0000831
:103AA00008B5082003F074FB0023437001235B4238
:103AB00043600323011C03700148FFF7CFFD08BDDD
:103AC000ED36000870B55A4C6378012B26D0594D5D
:103AD000A88AFDF775F9584B1968FCF7B7FEFFF790
:103AE00001F807F0D9FDFEF757FF2061236AE88A45
:103AF000C01AFDF765F9514B1968FCF7A7FEFEF7F0
:103B0000F1FF07F0C9FDFEF747FF6061288BFFF763
:103B100053FEA061688BFFF74FFEE061A31DDB7FC2
:103B2000012B26D0434D2888FDF74AF9444B1968EC
:103B3000FCF78CFEFEF7D6FF07F0AEFDFEF72CFF7C
:103B40006063636CA888C01AFDF73AF93D4B1968A9
:103B5000FCF77CFEFEF7C6FF07F09EFDFEF71CFF9C
:103B6000A063E888FFF728FEE0636888FFF724FE7B
:103B70002064231C49331B78012B26D02D4DA889A6
:103B8000FDF71EF9304B1968FCF760FEFEF7AAFF3F
:103B900007F082FDFEF700FFA065A36E6889C01ADA
:103BA000FDF70EF9294B1968FCF750FEFEF79AFF56
:103BB00007F072FDFEF7F0FEE0652889FFF7FCFDD7
:103BC0002066E889FFF7F8FD6066231C6D331B78DB
:103BD000012B2CD0174D261D288AFDF7F1F81C4B20
:103BE0001968FCF733FEFEF77DFF07F055FDFEF781
:103BF000D3FE231CE0678C331B68688AC01AFDF76C
:103C0000DFF8144B1968FCF721FEFEF76BFF07F095
:103C100043FDFEF7C1FEF067A88BFFF7CDFD231C27
:103C20000833D867E88BFFF7C7FD8834206070BD84
:103C3000880900206809002000000808040008081E
:103C400010000808140008082000080824000808CC
:103C5000300008083400080873B54378041C022BB0
:103C600021D1027900239A4203D00323012A00D1F3
:103C7000131C01259B002B430905090D1B030B4356
:103C80006E46F380A189A0680022063602F0EEFDA0
:103C9000311C022204480A2302F00EF8A068A18910
:103CA0002A1C02F0E3FD73BD9C06002073B5154B82
:103CB0006D46EB80041C81890022806802F0D6FDED
:103CC000114E0635291C301C0A23022201F0F4FF94
:103CD000A189A068012202F0C9FDA023DB01A1890E
:103CE000A06800222B8002F0C1FD291C301C0A2391
:103CF000022201F0E1FFA068A189012202F0B6FDD5
:103D000073BDC046FF1F00009C060020F7B5354C70
:103D10008020C000012302252086601DC577237006
:103D2000A01D00230421C3778025201C54308D4022
:103D30000580201C483003252B4A0570201C493083
:103D4000A260E2622265037062678020221C7832E2
:103D500040011080221C6C321170221C6D32A18136
:103D600063701370201CFFF7A1FF201C2430FFF7A5
:103D70009DFF201C4830FFF799FF201C6C30013D4F
:103D8000FFF794FF002DEDD1142201922F1C2E1C61
:103D900000950A2003F068F9144BDA8AAD189A8866
:103DA000BF185A895B8AB618009AD218019B0092F4
:103DB000013B0193002BECD1281C1421FCF710FAD5
:103DC00014212062381CFCF70BFA14216064301CAB
:103DD000FCF706FA1421A0660098FCF701FA8C346F
:103DE0002060F7BD88090020000400506809002009
:103DF00038B503F01BF901F0F3F801F011F801F008
:103E000083F801F037F801F067F801F051F801F09C
:103E1000BFF9FFF715FCFFF74BFC134D01221349C7
:103E2000281C01F02DFA124801F01EFE114802F084
:103E3000E9FFFFF76BFF0020011C01F091F90E482C
:103E400001F012FA0D4C0E49201C03F0EFFB201C70
:103E500003F0F4FBFA2382B2211C9B00281C01F022
:103E600003FDFFF76DFDFEE7F4060020500900207A
:103E70001C08002064070020E1C00008540800204E
:103E8000EBC00008F0B5D64A87B00390107814252F
:103E9000D44968430B78D44CC018D44F0023035541
:103EA0000B7013700222FA23D1499340381C01F0A1
:103EB000DBFC201CCF49FCF727F93E1C002802D16F
:103EC000FFF73EFD17E2201CCB49FCF71DF9002847
:103ED0002ED1201C143003F02FF901380290032852
:103EE00033D824274743C54BDF197E78002E2CD1C9
:103EF000182003F04DF9051C0760201C283003F042
:103F00001BF96860201C3C3003F016F9A860201CE7
:103F1000EE602E75503003F00FF9002806D0B84B34
:103F2000029901228A4019780A431A70B5486AE05A
:103F3000201CB549FCF7E8F8002827D1201C1430D4
:103F400003F0FAF80138032801D90020A7E024275C
:103F50007843AA4F3F187E78002EF6D11C2003F03C
:103F600017F9051C4761201C283003F0E5F8A8600C
:103F7000201C3C3003F0E0F8E860201C503003F0D7
:103F8000DBF86E6028612E76A0483CE0201CA0493A
:103F9000FCF7BAF80290002839D1201C143003F045
:103FA000CBF8461E032ED0D8242003F0F1F82423AA
:103FB0007343924A051C9B18C361201C283003F0F0
:103FC000BBF8A860201C3C3003F0B6F8E860201C69
:103FD000503003F0B1F82861201C643003F0ACF8D5
:103FE000029A68616B1C201C6A607830DA7703F0F3
:103FF000A3F8002806D0824B0122B240161C1A7882
:1040000016431E708348291CFFF728FB73E1201C10
:104010008149FCF779F8002829D1201C143003F0DD
:104020008BF8461E032E90D824204643734B9E19CE
:104030007778002F89D103F0ABF8051CC661201CEE
:10404000283003F079F86860201C3C3003F074F8E5
:10405000A860201C503003F06FF86876201C643094
:1040600003F06AF86B1C6861DF776C48CBE7201CB3
:104070006B49FCF749F8002814D1201C143003F0D8
:104080005BF8051C201C283003F051F8E9B20590BC
:1040900005A8FFF757FB002800D02CE10320FFF70D
:1040A000FFFB28E1201C5F49FCF72EF800280ED109
:1040B000201C143003F040F8051C201C283003F0AD
:1040C0003BF8E9B2059005A8FFF758FBE3E7201C91
:1040D0005549FCF719F8002813D1201C143003F0BF
:1040E0002BF85249C5B26B189B001868FEF7FAFC12
:1040F0004F4C009001912A1C201C4E4903F074FA89
:1041000013E0201C4C49FBF7FFFF002813D1201CB3
:10411000143003F011F84549C2B25318444C9B00C7
:104120001B68201C454903F05FFA201C03F086FA47
:1041300082B2381CDAE0201C4149FBF7E5FF002879
:1041400014D1404802F0F8FF013803281BD824237B
:1041500058432A4B18184378002B14D1344C026969
:1041600043693949201C03F03FFABAE0201C374963
:10417000FBF7CAFF00286DD1201C143002F0DCFFD1
:104180000138032801D9052089E7242568431B4D00
:104190002D186B78002BF6D1E869FCF7F1FDFFF7DD
:1041A0000BFB041CA869FCF7EBFDFFF705FB029075
:1041B000201CFEF797FC041C02980D1CFEF792FCD5
:1041C0001B4F00900191221C21492B1C381C03F02D
:1041D0000BFA381C03F032FA391C82B2301C86E02C
:1041E000660500206705002086080020F4060020F0
:1041F000EABE0008F8C00008FDC0000888090020D9
:10420000690500201D43000800C10008854800081A
:1042100007C100088946000810C100083D45000894
:104220001BC1000824C100082EC1000800000202C2
:104230005408002037C100084BC1000855C10008D0
:1042400069C100089A0800206FC1000884C10008F5
:104250008CC10008201C2A49FBF756FF002818D102
:10426000041C284B1B199A68531C0ED0264D274955
:10427000281C03F0B9F9281C03F0E0F9FA2382B2F4
:10428000291C301C9B0001F0EFFA0C34F02CE8D113
:1042900031E0201C1E49FBF737FF002813D1201CFA
:1042A000143002F049FF13280BD80C234343154A5E
:1042B000D3189B68013304D0FFF7E6F9FFF726FD1A
:1042C00019E00420EBE6201C1249FBF71DFF002833
:1042D00002D102F0F1FB0EE00B4C0F49201C03F061
:1042E000A5F9201C03F0AAF982B2301C211CFA2384
:1042F0009B0001F0B9FA0398FFF7C6F907B0F0BDCB
:104300009DC100086C05002054080020A0C10008D1
:10431000AAC10008AFC10008B5C100080C2343437F
:10432000F0B5794A89B0D3185C68061C237D012B4F
:1043300029D0002B03D0022B00D1A3E0E1E02168BB
:10434000724B0A781978531E19410B1CD9070ED5E8
:104350006F4D7049281C03F047F9281C03F06EF9D3
:10436000FA2382B2291C6C489B0001F07DFA226876
:104370000025022325615370012313712375FFF774
:10438000A3F9A57560752568604B2F781A787B1E98
:104390001A41131CDA0733D5627D604B9200D25864
:1043A0005F4B0692134004D50222013B5242134355
:1043B0000133DBB20793A37D07998B4220D02A6992
:1043C000534E00926B690193E869FEF78BFB0290F4
:1043D0000391A869FEF786FB3A1C04900591069BA1
:1043E0005049301C03F000F9301C03F027F9FA2380
:1043F00082B2311C48489B0001F036FA0799A1753A
:104400002568A3682A699A421ADDE8694649FBF7DC
:10441000B7FF002805D1A8694449FBF7B1FF002880
:1044200011D03B4D4249281C03F000F9281C03F031
:1044300005F9FA2382B2291C37489B0001F014FACF
:10444000022323755DE061686B69CA18111C633132
:104450000123C62900D90A23E1688A4205DD2069C3
:10446000344EB04201DCC018206149428A4204DA6D
:104470002269002A01DDD31A23612169281CFFF774
:10448000EBFB3EE0637D25499B005F586068E121BE
:1044900009017843FBF7A4FE1D4D021C26493B1C75
:1044A000281C03F0A1F8281C03F0C8F8FA2382B2F4
:1044B0009B00291C184801F0D7F90121002000F0C9
:1044C0004FFE281C00F0D0FE637D144901222068B5
:1044D00052429B005A5000234370FFF7E7FB2168CC
:1044E0000A4B09781A780139141C0C410120044246
:1044F00002D0884082431A70301CFFF7C5F8FFF7DE
:10450000CFFA09B0F0BDC0466C0500206905002057
:1045100054080020C6C10008F406002054090020F9
:1045200001000080EAC10008000070420000024360
:1045300002C20008FE0F00002DC200080C234343F6
:10454000F7B54C4A061CD3185C68611CCB7F8C46BF
:10455000012B57D0002B48D0022B00D089E0607E81
:10456000FCF78AFC071C2069FCF72AFC391CFBF7C6
:1045700089FF0190E068FCF723FC391CFBF782FF00
:10458000011C0198FCF78CFAA2686368071CD01A1A
:10459000FCF716FC011C381CFBF774FF40004008B8
:1045A000FEF7A0FA344D021C0B1C281C334903F003
:1045B0001BF8281C03F042F8FA2382B29B00291C46
:1045C0002F4801F051F90121002000F0C9FD281CFD
:1045D00000F04AFEE06900234370FFF767FB301CE0
:1045E000FFF752F8FFF75CFA43E0E069022123602D
:1045F00062464170012101712376A376E360236155
:10460000D17736E0257EE069AE00A6197768426969
:10461000B918CA178F1857406269974213DC0169AD
:10462000F7687918F160A17E607E0131C9B2A17688
:1046300088421ED8002D02D12376A57619E00223E8
:104640006146CB7715E00A1C6332C62A00D90A23DB
:104650002268002904DD0B49D3188A4205DD05E0F4
:10466000002903D0002A01DDD31A23602168FFF757
:10467000F3FAF7BD6C0500205408002045C200087D
:10468000F4060020FE0F00000C234343724AF0B5ED
:10469000D3185C688BB0661CF37F071CE569012B9F
:1046A00029D0002B03D0022B00D19FE0D1E06B4B2F
:1046B0002A781978531E1941C8070ED5684F6949E1
:1046C000381C02F091FF381C02F0B8FFFA2382B2C6
:1046D000391C65489B0001F0C7F8644B2360002338
:1046E00023762B7102236B700123F377FEF7ECFF27
:1046F0000234E077ADE0594A2F7811787A1E1141E3
:10470000194237D0A31CDA7F594B9200D258594B2B
:104710000792134004D50222013B52421343013356
:10472000DBB2E11C08930991CB7F089A934221D018
:104730002B694B4E009368690190E869FEF7D2F946
:1047400002900391A869FEF7CDF93A1C04900591F7
:10475000079B4949301C02F047FF301C02F06EFFF6
:10476000FA2382B2311C40489B0001F07DF8089A80
:104770000999CA77237E002B06D1286921698842CE
:104780000FDB0123237664E06A69D01711181A1D24
:10479000920012594140914203DC01340223E37735
:1047A00057E09A1C92001259002B01D16B6900E06E
:1047B0002B69D21A111C63310123C62900D90A239F
:1047C00061688A4204DD2068002801DDC01A20608B
:1047D00049428A4205DA226828498A4201DCD31814
:1047E00023602168281CFFF737FA32E0A11C0791EB
:1047F000CB7F1B4E1E489B001A582149301C02F0EB
:10480000F3FE301C02F01AFFFA2382B2311C9B0027
:10481000154801F029F807991548CB7F012252422B
:104820009B001A5000236B70281CFFF73FFAE169C8
:104830000A4B09781A780139141C0C4101200442F2
:1048400002D0884082431A70381CFEF71DFFFFF724
:1048500027F90BB0F0BDC0466C05002069050020AB
:1048600054080020C6C10008F4060020FF0F000015
:104870005409002001000080EAC10008281300004C
:1048800053C20008F8B50C234343334A071CD3181E
:104890005C68237E6569012B32D0002B25D0022B6A
:1048A00059D1637E2D4E2E489B001A582D49301C3D
:1048B00002F09AFE301C02F0C1FEFA2382B2311CD3
:1048C0009B00294800F0D0FF637E25490122524217
:1048D0009B005A5000236B70281CFFF7E7F9381C27
:1048E000FEF7D2FEFFF7DCF835E0204A22602B719C
:1048F00002236B7001232376FEF7E6FE60762AE042
:10490000617E174A89008A582069824203DA296940
:10491000E268914202DB022323761CE06969A06809
:10492000421A111C6331C62900D90A2361688A42E0
:1049300004DD2068002801DDC01A206049428A4257
:1049400005DA22680A498A4201DCD318236021680B
:10495000281CFFF781F9F8BD6C05002054080020E1
:104960005409002053C20008F4060020FF0F000085
:10497000281300000023054A9A181168481C01D02A
:10498000013111600433142BF5D170475409002014
:10499000F8B5194D194C6423281C211C012200F084
:1049A00063FF174E3378B446122B1BD822780D2A9A
:1049B00018D01449144F202A0BD10878092808D898
:1049C000142242430130D3180022FA543270087086
:1049D0000CE0581C09786646307014204143CB180F
:1049E000FA5403E009480021FEF738FE281C211C78
:1049F000012200F045FCF8BDF4060020500900201B
:104A0000670500206605002086080020853E000816
:104A1000A023DB051B690340984380239B00984239
:104A200014D007D880235B00984218D10C4B012189
:104A30001A7812E08023DB0098420BD080231B0100
:104A400098420CD1064B08211A7806E0044B02214B
:104A50001A7802E0024B04211A780A431A70704750
:104A600068050020AE4BF7B51878032800D955E14A
:104A70000122AC4CFBF752FB0212559A00F07AFB74
:104A80000020011C00F06CFBA74800F0EDFBA449DE
:104A90000123A64A0B700023137023702378DA07D2
:104AA00005D5A24B1A78022A25D8013208E0022641
:104AB0001D1C354006D09D4B1A78002A1BD0013AA8
:104AC0001A7018E004221A4010D0291C281C00F08B
:104AD00047FB974800F0C8FB944B964A19781D7025
:104AE000102323708E4B11701E7017E1190702D529
:104AF0008B4B1A700BE100200121207000F030FB7D
:104B00008A4B1878032800D908E1FBF707FB020459
:104B10000608894847E0894845E0894843E08948D4
:104B200041E02378134205D0804B1A78022A25D819
:104B3000013207E002251D4006D07C4B1A78002A7E
:104B40001CD0013A1A7019E0590711D5291C281CEC
:104B500000F006FB7C4800F087FB744B754A19781F
:104B60001D70517010236E4A237003231370D5E01B
:104B7000190703D56A4A00231370C8E000200121F9
:104B8000207000F0EDFA694B1878032800D9C5E0D1
:104B9000FBF7C4FA020406086C4804E06C4802E023
:104BA0006C4800E06C4800F05FFBB7E023781342EC
:104BB00006D05E4B1A78022A00D9ADE0013207E038
:104BC000990707D5594B1A78002A00D1A4E0013A79
:104BD0001A70A1E05A0700D49BE0564B18785D7814
:104BE000032800D990E0FBF799FA021F4964032DCE
:104BF0001CD824204543594B5D196E78002E15D1E1
:104C000002F0C6FA564BC5611B68011C4360554B48
:104C10001B688360544B1B684376544B1B6843618D
:104C2000431CDE7752486DE0032D03D90020FEF7C8
:104C300037FE69E024276F43484BDF1901977F78DF
:104C4000002FF3D1182002F0A3FA019B061C036089
:104C5000484B1B684360484B1B68C76083600775FF
:104C6000464802F069FA002806D0454B0122AA40C6
:104C7000151C1A7815431D70424842E0032DD5D803
:104C800024235D43354B5D196E78002ECED11C2058
:104C900002F07EFA3C4B011C1B68456183603B4B74
:104CA0001B68C3603A4B1B6846600361067639484F
:104CB00028E0032DBAD8242002F06AFA24236B439B
:104CC000264A061C9B18C361334B421C1B68836039
:104CD000324B1B68C360324B1B680361314B1B684E
:104CE000436100234360D3772F4802F025FA002860
:104CF00006D0234B0122AA40151C1A7815431D70BB
:104D00002A48311CFEF7AAFC054900230B7010232A
:104D100003E01A0700D52DE700232370F7BDC04636
:104D20006A0500206805002071C200085C060020AA
:104D300079C200084E09002082C2000893C2000810
:104D4000A4C20008B5C20008C6C20008CFC200084D
:104D5000DAC20008E5C20008F0C200088809002095
:104D60004000080844000808480008084C000808EB
:104D70003D4500085000080854000808D6080020E7
:104D8000690500201D430008580008085C00080859
:104D900060000808854800086400080868000808E2
:104DA0006C00080870000808FE080020894600080A
:104DB00070B5164C051C2688731C238002F05CF825
:104DC000134B7600F0522388261C0F2B1CD9FEF7BC
:104DD00079FE00240F4B1A199068421C01D0E35849
:104DE00098470C34F02CF5D10B4B1B78002B01D0DD
:104DF000FFF738FE80210948090101F03DFD00233D
:104E0000281C338001F0FEFF70BDC0466405002001
:104E1000680900206C05002068050020000800508B
:104E200037B5114B114C0025236090239B03636120
:104E30000423E361201C012323626560A561656290
:104E4000A562E5626563A56301F006FF291C201CCD
:104E500001F06EFE064B201C009380235B01694627
:104E6000019302F07DF837BD002401406407002063
:104E7000FFFF003C08B50C480C4B80221201036078
:104E8000C260822380225B00920043608261002323
:104E90003022836003614361C261036243628362C3
:104EA00000F0CAFE08BDC0469C0600200038004045
:104EB00008B50748074B0360FA231B024360FA2337
:104EC0005B00C36000230361836000F0B3FD08BD95
:104ED0001C0800200008014008B50948094B0C22B5
:104EE0000360E1235B02436000238360C3600361CE
:104EF00042618361C3610362436200F03BFD08BD10
:104F0000F4060020003801402F4BF0B5DA6A012486
:104F10002243DA62DA6A8BB022400192019AD96A9E
:104F200002221143D962D96A04260A400292029AE7
:104F3000DA6A00253243DA62DA6A244832400392A0
:104F4000039AD96A08221143D962DB6A05A91A407B
:104F50000492049BF0239B01059306940795089502
:104F600001F0CAFB1A4B05A91A4805930694079449
:104F7000089501F0C1FBF023B340A0270593FF057E
:104F8000154B381C05A906930794089501F0B4FB4E
:104F90002A1C0321072001F053FD072001F082FDA8
:104FA00080231B02381C05A90593069407950895D4
:104FB00001F0A2FB094805A90596069407940895F7
:104FC00001F09AFB0BB0F0BD001002400008005049
:104FD000041C00000004005000002110000C0050D0
:104FE000244B8022996B52050A4330B59A63224BB9
:104FF000224A19689DB00A40802109010A431A60BB
:1050000080235B020F9319938023DB021A931022F3
:105010008023DB030125032412920EA802221B9396
:1050200018920E94119500F0B1FF291C029401A86A
:105030000024019503940494059401F0E3F906A873
:105040000695079400F0FCFE01F022FBFA2189008E
:10505000FBF778F801F03EFD6D42042001F054FDAD
:10506000281C211C221C01F0EBFC281C01F01AFD5D
:105070001DB030BD0010024000700040FFE7FFFF90
:1050800038B50A4D80242402281C211C012201F07D
:10509000EDFB042001F0E8FF281C211C002201F098
:1050A000E5FB042001F0E0FF38BDC04600080050D9
:1050B000F8B5114F802601247600021C051C311C16
:1050C000381C224001F0D2FB6A088021381C2240A3
:1050D000890001F0CBFBAA08A02080212240C00556
:1050E000490101F0C3FBEA08311C2240034801F0EA
:1050F000BDFBFFF7C5FFF8BD0008005000040050DD
:1051000010B5802189000022041C064801F0AEFB86
:105110002009FFF7CDFF201CFFF7CAFF012001F097
:10512000A3FF10BD0004005070B50C4D8024A400F6
:10513000061C211C281C012201F098FB3009FFF7F6
:10514000B7FF301CFFF7B4FF281C211C002201F020
:105150008DFB012001F088FF70BDC04600040050A7
:1051600008B58901802308185B421843C0B2FFF7D5
:10517000C7FF08BD08B50120FFF7C2FF022001F0FC
:1051800073FF0220FFF7BCFF022001F06DFF08BD96
:10519000F0B5314D0423EA6A85B01A43EA62EA6A3F
:1051A0002E4C13400193019BC3231B0202260127AF
:1051B0002360211C00232A48E3606760A66001F099
:1051C0009BFAEB6A211C3343EB62EB6A25483340C0
:1051D0000293029BC023B34023600023E360676017
:1051E000A66001F089FAEB6AA0203B43EB62EB6A10
:1051F000211C3B400393039B80235B012360C0057C
:105200000023E3606760A66001F076FA1E2001F0DB
:105210002BFF0320FFF74CFF052001F025FF0320A3
:10522000FFF746FF962001F01FFF0320FFF740FF26
:10523000301CFFF73DFF2820FFF762FF0C20FFF72F
:105240005FFF0620FFF75CFF8020FFF759FFFFF7A5
:1052500091FF05B0F0BDC04600100240180A0020C2
:10526000000800500004005010B5041C20780028ED
:1052700003D00134FFF758FFF8E710BD7047000076
:1052800070B5041C6934031C2078012803D02578EC
:105290000220122D48D10120002945D0002A43D0F8
:1052A0001D1C68352E780220012E3DD0012028706B
:1052B0005965191C58310A804A809A688021490131
:1052C0008A4204D11A69002A06D1184910E0002A3E
:1052D00006D11A69002A01D1FF2109E07F2107E0E8
:1052E000802149058A4206D11A69002AF6D03F2159
:1052F0001A1C5C3211800022DA662278122A01D14F
:10530000322200E022221B6822701968802252009B
:105310000A431A609A6801210A439A601A68202198
:1053200000200A4328701A6070BDC046FF010000CB
:105330007047704703680122D96970B5041C114297
:1053400009D01968C80506D51A62E16E1143E166F5
:10535000211C69310A70DA6902210A420BD098686F
:105360000122104207D01962E16E04200143E16678
:10537000211C69310A70DA6904210A420BD098684D
:105380000122104207D01962E16E02200143E1665A
:10539000211C69310A70D969082211420AD0986823
:1053A0000121084206D01A62E36E1A43231C6933B6
:1053B000E2661970E36E002B02D0201CFFF7B9FFE4
:1053C00023688022D969520311420AD099684D029C
:1053D00007D51A62231C012269331A70201CFFF7BB
:1053E0004DFF21682023CA691A4243D00A681A4235
:1053F00040D0231C221C5C33693218881378222B7E
:1054000002D01378322B35D1A6688025636D6D01EB
:10541000AE4208D12569002D05D1496A084018809F
:105420000233636504E0496A5D1C084065651870D5
:10543000211C5A310B88013B9BB20B80002B19D1E8
:105440002368D86920210842FBD118688843186076
:105450001178322902D11223137008E018682B4901
:105460000140196098680121884398601170201CE0
:10547000FFF78EFA23688022D96911422ED019686D
:1054800011422BD0221C69321178122902D01278D5
:10549000322A23D1211C52310888002808D11A68E9
:1054A00080218A431A601A6840210A431A6015E075
:1054B000A6688025E26C6D01AE4209D12569002DF8
:1054C00006D115880232ED05ED0D9D62E26403E020
:1054D000551CE56412789A6201380880D969402227
:1054E000114211D0196811420ED019689143196008
:1054F000231C69331A78322A01D1222200E00122CA
:105500001A70201CFFF714FF70BDC046FFFEFFFF9E
:10551000F8B5061CB3683169076819437369C26935
:10552000194338686A4B114303400B433B60796869
:10553000684BF0680B40684903437B60B3698F4256
:1055400001D0306A0343BC68644820400343BB6019
:10555000634B9F4205D1634BD96C03230B406249D7
:105560000BE0624B9F420AD15E4B0020D96C0C23AA
:105570000B40043B082B47D85D49C85C44E0002041
:105580008F4241D1574AC021D36C090180200B4082
:105590000001834208D08B422ED08022D200934259
:1055A00018D001F089F817E013687068D9060AD599
:1055B000FDF764FA021C0B1C3E493D48FBF7C8FF8F
:1055C000FAF70AFF6FE0FDF759FA021C0B1C3A4884
:1055D0003A49F3E701F020F8FDF750FA384A394B21
:1055E000FCF720FC041C70680D1CFDF747FA021C38
:1055F0000B1C201C291CE1E77068FDF73FFA021C18
:105600000B1C31483149D9E780231B029A422BD128
:1056100008281FD8FAF782FD05080B1E131E1E1E50
:10562000170001F049F80CE001F056F809E02D4BA5
:105630001B68DA0601D52F4807E02F4805E000F087
:10564000EBFF400001E0802040027168FAF77AFD2C
:1056500080B200E000200F23011C184099433268FB
:1056600040100843D0601FE008281DD8FAF756FD07
:1056700005080B1C131C1C1C160001F01DF80FE084
:1056800001F02AF80CE0174B1B68D80601D51B481F
:1056900006E01B4804E000F0BFFF01E080200002AC
:1056A0007168FAF74FFDF860F8BDC046C046C046C5
:1056B000000000008084CE41000000008084EE41A4
:1056C0000000000000007040000000000000604189
:1056D000F369FFEFFFCFFFFF00480040FFF4FFFF3B
:1056E000003801400010024004C30008004400409C
:1056F000FBC2000800127A000048E80100093D00E2
:105700000024F400C046C046436A30B5DA0706D527
:105710000268284954682140846A214351609A07ED
:1057200006D50268244954682140C46A2143516067
:105730005A0706D50268214954682140046B214369
:1057400051601A0706D502681D4954682140446B10
:1057500021435160DA0606D502681A49946821404F
:10576000846B214391609A0606D5026816499468B5
:105770002140C46B214391605A0610D50268134C36
:105780005568016C2C400C43546080246403A14292
:1057900005D154680E492140446C214351601A06DA
:1057A00006D503680B4A59680A40816C0A435A605F
:1057B00030BDC046FFFFFDFFFFFFFEFFFFFFFBFF09
:1057C000FF7FFFFFFFEFFFFFFFDFFFFFFFFFEFFFA9
:1057D000FFFF9FFFFFFFF7FFF7B51D1C041C0E1C0A
:1057E000019201F03BFC019B071C002B36D1226883
:1057F000D3693340B3420FD06B1CF9D0002D0FD0CA
:1058000001F02CFCC01BA842F1D909E06B1C05D1AA
:10581000D3693340B342F9D0002021E0002D18D1E4
:10582000236880211A6803208A431A601A6820219D
:105830008A431A6019680B4A0A401A609968012263
:1058400091439960231C69331A70683400232370D4
:1058500006E001F003FCC01BA842E1D82268D7E7AC
:10586000FEBDC046FFFEFFFFF7B5051C019369357D
:105870002B78041C0E1C012B03D02B780220222B2A
:105880004DD10120002E4AD0002A48D0271C68376D
:105890003B780220012B42D001233B700023E366BA
:1058A0002B78222B01D1322300E012232B70231CF2
:1058B00050331A805A80231C52331A88002A1ED073
:1058C000013A1A80201C80210022019BFFF784FFEF
:1058D000002801D0032022E0A16880222368520121
:1058E000914208D12269002A05D132880236D205B8
:1058F000D20D9A62DFE7327801369A62DBE7201C2C
:105900004021019BFFF768FF0028E3D12B78322B61
:1059100001D1222300E001232B7000233B70FEBD48
:10592000036810B51B68041C1A0704D423681B689D
:105930005A0713D509E08021890300220C4BFFF799
:105940004BFF0028F2D0032010E08021201CC90367
:105950000022074BFFF740FF0028F4D1231C6833D7
:1059600000201870E06601236934237010BDC04622
:10597000F055000038B5041E2BD0051C69352B7876
:10598000DBB2002B04D1021C68321370FDF72EFE2F
:1059900002232B70236801211A68201C8A431A6095
:1059A000FFF7B6FD636A002B02D0201CFFF7ACFEA8
:1059B0002368094A5968201C0A405A609A682A21BB
:1059C0008A439A601A6801210A431A60FFF7A8FF08
:1059D00000E0012038BDC046FFB7FFFF802210B5B0
:1059E0000368D205904205D00F4CA04202D00F4C64
:1059F000A0420BD17024A3434C68234390420DD0A6
:105A0000094A90420AD0094A904207D003608A6846
:105A10000B68C26283620123436110BD044A1340D4
:105A2000CA681343F2E7C046000801400014014071
:105A3000FFFCFFFF38B5041E14D0051C35352B784C
:105A4000DBB2002B04D1021C34321370FDF7B6FD1B
:105A50000223211C2B7001C9FFF7C0FF01232B700B
:105A6000002000E0012038BD03680122D968002031
:105A70001143D96019680A431A607047704770472C
:105A80007047704703680222196910B5041C11425F
:105A900014D0D968114211D0032252421A619B6975
:105AA000012202759A0702D0FFF7E9FF04E0FFF731
:105AB000E5FF201CFFF7E4FF002323752368042281
:105AC0001969114217D0D968114214D005225242E7
:105AD0001A61022222759A69C0239B00201C1A4277
